S00F0000462D30303030342E73726563AE
S11300000C946A000C94A2000C9487000C94870052
S11300100C9487000C9487000C9487000C94870040
S11300200C9487000C9487000C9487000C94870030
S11300300C9487000C9487000C9487000C94870020
S11300400C9487000C9487000C9487000C94870010
S11300500C9487000C9487000C9487000C94870000
S11300600C9487000C9487000C9487000C948700F0
S11300700C9487000C9487000C94870009021200EA
S11300800101008032090400000000000000120198
S11300901001FF000008C016DF0500010102030182
S11300A0120330007800300030003000300030009F
S11300B030000A034C00490042005300140341007D
S11300C070006C0069006B00610063006E006900E1
S11300D00403090411241FBECFEFD0E1DEBFCDBF5E
S11300E011E0A0E0B1E0E6E5F6E002C005900D9273
S11300F0A230B107D9F721E0A2E0B1E001C01D921E
S1130100AD32B207E1F70E94F7010C9429030C9475
S11301100000A82FB92F80E090E041E050EA6095FC
S113012030E009C02D9182279795879510F0842798
S11301309527305EC8F36F5FA8F30895EADF8D93C7
S11301409D930895CF93CFB7CF93C3954C9BE9F775
S11301504C9B0BC04C9B09C04C9B07C04C9B05C0DF
S11301604C9B03C04C9B01C0C0C0C0911001DF93E5
S1130170DD27C95EDE4F2F932FEF4C9B03C02F91D9
S1130180DF91E6CF0F931F934F936F9309B104FB55
S113019020F93F933BE05F931EC04E7F012F19B1BE
S11301A01471E1F0216000001DC0102F4D7F22600A
S11301B0000009B1047191F01DC04B7F2460012F30
S11301C0000019B1147151F01EC019B1147131F04D
S11301D0477F28601BC019B1147109F462C04FEF46
S11301E0297FD9F2012704FB21F909B10471B1F384
S11301F0237FD9F2102714FB22F900C019B114711E
S113020069F3277ED1F2012704FB23F92F7CE9F25D
S113021009B1047119F3102714FB24F92F7929F17A
S113022000C019B11471E9F1012704FB25F92F73FA
S113023011F100C009B10471A1F1102714FB26F9D2
S11302402230F8F000C019B1147159F1012704FBF0
S113025027F92430E0F04227000009B14993102720
S113026014FB20F93150C8F0B6CF4F7E09B10471A8
S1130270C1F02061D3CF206219B1147191F04F7D88
S1130280D6CF4F7B09B1047161F02064D9CF4F7789
S113029019B1147131F02068DCCF11E01CBB0027C8
S11302A017C03B503195C31BD04011E01CBB0881E3
S11302B0033CF9F00B34E9F020910E011981110F80
S11302C01213EDCF093651F10D3211F0013E39F719
S11302D0009315015F913F916F914F911F910F9181
S11302E02F91DF91CCB3C0FD30CFCF91CFBFCF9151
S11302F0189520911501222369F3109113011123FC
S113030031F5343032F13093130120930F01109101
S113031010013BE0311B309310011BC0009113010D
S11303200130ACF40AE53091010134FD13C00093AF
S11303300101C3E0D1E012C005271127000019C054
S1130340052711271FC005271127000024C04AE5EF
S113035002C032ED432FC4E1D0E032E01AB114619F
S11303605C9A0BB11AB954E120E866E020FF052736
S113037027950BB917951C3FF8F66A95B9F720FF36
S11303800527279500000BB917951C3FC8F620FFD9
S113039005272795179566E01C3F0BB9A0F6299110
S11303A03A9521F70B7E10911401110F0BB9C65128
S11303B0D04011F010930E0111E01CBB00611AB182
S11303C01B7E402F4B7E53E05A95F1F700C00BB9CA
S11303D01AB94BB97FCFFC012181213031F48281DC
S11303E080FF02C085B101C085B180E008959EE020
S11303F088E10FB6F894A895809360000FBE90939F
S113040060000E942203549A8AEFA895EBE4FDE170
S11304103197F1F700C000008150B9F754987894EF
S1130420A8950E941402FCCFCF93DF93809113010F
S113043083500AF49FC02091100190910F019D32C6
S113044009F096C0883009F093C0CCE0D0E0C21B1C
S1130450D109C95EDE4F83EC809303018AE5809362
S11304600101109202018881807621F0CE010E9460
S1130470EB0175C08A8110920C019981911106C01B
S113048010920D012CE031E082E065C0953031F42A
S1130490809314012CE031E080E05DC0963009F0D7
S11304A046C09B81913041F48EE890E09093120114
S11304B08093110182E137C0923041F48CE790E0DF
S11304C0909312018093110182E12DC0933041F584
S11304D0811108C080ED90E0909312018093110186
S11304E084E021C0813041F48CEB90E090931201C0
S11304F08093110184E117C0823041F482EB90E0D3
S113050090931201809311018AE00DC0833051F45D
S113051080EA90E0909312018093110182E103C07C
S113052080E001C080E090E49093020118C098300C
S113053079F0993031F4809316012CE031E080E0B9
S11305400AC081E09A3009F080E02CE031E003C079
S113055026E131E081E030931201209311019F8163
S1130560911104C09E81981708F4892F809300018B
S1130570109213018091010184FF4CC0809100010D
S11305808F3F09F447C0C82F893008F0C8E08C1B9E
S113059080930001E3E0F1E0908188E8892780837B
S11305A0CC2309F445C020911101309112018091AE
S11305B0020186FF10C0A4E0B1E0F9018C2F9491F0
S11305C09D9331968150D9F72F5F3F4F8FEF8C0F5A
S11305D0280F311D0EC0A4E0B1E0F9018C2F9191D8
S11305E09D938150E1F72F5F3F4F8FEF8C0F280FC2
S11305F0311D30931201209311016C2F84E091E09E
S11306000E949E00CC5FCC3018F48FEF80930001E1
S1130610C093010189B1847191F493E189B184712A
S113062071F49150D9F71092140110920E0107C081
S11306306C2F84E091E00E949E00CC5FE6CFDF91B6
S1130640CF910895E9E6F0E0808182608083E89AA2
S10906500895F894FFCFA9
S1050656FF5A45
S9030000FC
